S01D0000556E6974375F6C6573736F6E325F73656374696F6E2E73726563B7
S11300000C942A000C943F000C943F000C943F0085
S11300100C943F000C943F000C943F000C943F0060
S11300200C943F000C943F000C943F000C943F0050
S11300300C943F000C943F000C943F000C943F0040
S11300400C943F000C943F000C943F000C943F0030
S11300500C943F0011241FBECFE5D8E0DEBFCDBF16
S113006010E0A0E6B0E0E6EDF3E002C005900D92EA
S1130070A037B107D9F70E9462010C94E9010C94EE
S1130080000041E068E081E00E94B00181EE94E06C
S11300900197F1F700C0000040E068E081E00E94B1
S11300A0B0010895CF93C82F8BB38F709C2F907F8E
S11300B0892B8BBB40E062E081E00E94B00140E00C
S11300C064E081E00E94B00187EA91E60197F1F7CC
S11300D000C000000E9441008BB3282F2F7030E134
S11300E0C39FC0011124822B8BBB40E062E081E0FE
S11300F00E94B00140E064E081E00E94B00187EA20
S113010091E60197F1F700C000000E94410081EEE2
S113011094E00197F1F700C00000CF910895CF93C8
S1130120C82F8BB38F709C2F907F892B8BBB41E0A2
S113013062E081E00E94B00140E064E081E00E945E
S1130140B00187EA91E60197F1F700C000000E9430
S113015041008BB3282F2F7030E1C39FC0011124BD
S1130160822B8BBB41E062E081E00E94B00140E061
S113017064E081E00E94B00187EA91E60197F1F71B
S113018000C000000E94410081EE94E00197F1F765
S113019000C00000CF91089541E062E081E00E9438
S11301A0770141E064E081E00E94770141E068E08A
S11301B081E00E94770140E060E180E00E947701E5
S11301C040E060E280E00E94770140E060E480E08B
S11301D00E94770140E060E880E00E94770181EEB0
S11301E094E00197F1F700C0000040E062E081E094
S11301F00E94B00141E064E081E00E94B0010E94ED
S1130200410041E060E180E00E94770141E060E26A
S113021080E00E94770141E060E480E00E94770181
S113022041E060E880E00E94770140E064E081E022
S11302300E94B001089581E00E94520008950E9436
S1130240CC000E941B0187E893E10197F1F700C0FD
S1130250000082E00E94520088E20E9452008FE077
S11302600E94520086E00E94520080E80E945200E0
S113027008950F931F93CF93DF93FC0120812223D2
S1130280E1F08C01C0E0D0E0C031D10521F480EC74
S11302900E94520008C0C032D10529F40E941B01FB
S11302A080E80E945200F80181918F010E948F0022
S11302B02196F80180818111E7CFDF91CF911F91C1
S11302C00F9108950E941F0187EA91E60197F1F7C3
S11302D000C000000E941B0187EA91E60197F1F734
S11302E000C0000080E690E00E943901FFCF442363
S11302F019F04130E9F00895813059F028F0823046
S113030069F0833081F008958AB3609568236ABBED
S1130310089587B36095682367BB089584B3609597
S1130320682364BB089581B36095682361BB089515
S1130330813051F028F0823059F0833069F008950B
S11303408AB3682B6ABB089587B3682B67BB08958B
S113035084B3682B64BB089581B3682B61BB089593
S1130360442319F04130E9F00895813059F028F020
S1130370823069F0833081F008958BB360956823EF
S11303806BBB089588B36095682368BB089585B3F3
S11303906095682365BB089582B36095682362BB4A
S11303A00895813051F028F0823059F0833069F09B
S11303B008958BB3682B6BBB089588B3682B68BB17
S11303C0089585B3682B65BB089582B3682B62BB1F
S10903D00895F894FFCF2C
S11303D64C6561726E20696E2064657074680000F5
S9030000FC
