:100000000C942A000C9434000C9434000C943400AA
:100010000C9434000C9434000C9434000C94340090
:100020000C9434000C9434000C9434000C94340080
:100030000C9434000C9434000C9434000C94340070
:100040000C9434000C9434000C9434000C94340060
:100050000C94340011241FBECFE5D8E0DEBFCDBF25
:100060000E944C000C9474000C94000087B3806BC9
:1000700087BB8DB181658DB908958FB9779BFECF10
:100080000895CF93C62FC4980E943D008C2F0E94E4
:100090003D00C49ACF9108950E9436006FEF89E029
:1000A0000E9441006FEF8AE00E94410067EF8BE001
:1000B0000E94410061E08CE00E94410010E0D12FDD
:1000C000C1E06D2F8C2F0E944100DF5FCF5FC930F0
:1000D000C1F7185F2FE38DE093E0215080409040FE
:0C00E000E1F700C00000EBCFF894FFCF68
:00000001FF
