:100000000C942A000C9447000C9447000C94470071
:100010000C9447000C9447000C9447000C94470044
:100020000C9447000C9447000C9447000C94470034
:100030000C9447000C9447000C9447000C94470024
:100040000C9447000C9447000C9447000C94470014
:100050000C94470011241FBECFE5D8E0DEBFCDBF12
:1000600010E0A0E6B0E0E4EBF4E002C005900D92F1
:10007000A037B107D9F720E0A0E7B0E001C01D929A
:10008000A23AB207E1F70E9479010C9458020C944D
:10009000000041E068E081E00E94D30181EE94E03D
:1000A0000197F1F700C0000040E068E081E00E94A5
:1000B000D3010895CF93C82F8BB38F709C2F907F5F
:1000C000892B8BBB40E062E081E00E94D30140E0DD
:1000D00064E081E00E94D30187EA91E60197F1F79D
:1000E00000C000000E9449008BB3282F2F7030E120
:1000F000C39FC0011124822B8BBB40E062E081E0F2
:100100000E94D30140E064E081E00E94D30187EACD
:1001100091E60197F1F700C000000E94490081EECE
:1001200094E00197F1F700C00000CF910895CF93BC
:10013000C82F8BB38F709C2F907F892B8BBB41E096
:1001400062E081E00E94D30140E064E081E00E942F
:10015000D30187EA91E60197F1F700C000000E9401
:1001600049008BB3282F2F7030E1C39FC0011124A9
:10017000822B8BBB41E062E081E00E94D30140E032
:1001800064E081E00E94D30187EA91E60197F1F7EC
:1001900000C000000E94490081EE94E00197F1F751
:1001A00000C00000CF91089541E062E081E00E942C
:1001B0009A0141E064E081E00E949A0141E068E038
:1001C00081E00E949A0140E060E180E00E949A0193
:1001D00040E060E280E00E949A0140E060E480E05C
:1001E0000E949A0140E060E880E00E949A0181EE5E
:1001F00094E00197F1F700C0000040E062E081E088
:100200000E94D30141E064E081E00E94D3010E949A
:10021000490041E060E180E00E949A0141E060E233
:1002200080E00E949A0141E060E480E00E949A012F
:1002300041E060E880E00E949A0140E064E081E0F3
:100240000E94D301089581E00E945A0008950E94FF
:10025000D4000E94230187E893E10197F1F700C0E1
:10026000000082E00E945A0088E20E945A008FE05B
:100270000E945A0086E00E945A0080E80E945A00BC
:1002800008950F931F93CF93DF93FC0120812223C6
:10029000E1F08C01C0E0D0E0C031D10521F480EC68
:1002A0000E945A0008C0C032D10529F40E942301DF
:1002B00080E80E945A00F80181918F010E94970006
:1002C0002196F80180818111E7CFDF91CF911F91B5
:1002D0000F910895813019F0823031F0089580E84F
:1002E000860F0E945A00089580EC860F0E945A00E3
:1002F00008950E9427010E940C020E94230187EAB0
:1003000091E60197F1F700C0000080E690E00E94BE
:1003100041018BE690E00E94210260E082E00E94B1
:100320006A0180E790E00E943B0280E790E00E9433
:100330004101F7CF442319F04130E9F008958130AD
:1003400059F028F0823069F0833081F008958AB343
:10035000609568236ABB089587B36095682367BB7F
:10036000089584B36095682364BB089581B3609554
:10037000682361BB0895813051F028F0823059F034
:10038000833069F008958AB3682B6ABB089587B3F8
:10039000682B67BB089584B3682B64BB089581B351
:1003A000682B61BB0895442319F04130E9F00895AA
:1003B000813059F028F0823069F0833081F008955F
:1003C0008BB3609568236BBB089588B360956823F1
:1003D00068BB089585B36095682365BB089582B3B3
:1003E0006095682362BB0895813051F028F0823017
:1003F00059F0833069F008958BB3682B6BBB089577
:1004000088B3682B68BB089585B3682B65BB0895D6
:1004100082B3682B62BB089583E389B9599880B58C
:100420008F7C80BD80B5866080BD8AB188618AB9C5
:1004300008955D9BFECF8CB908955F9BFECF8CB174
:1004400008950F931F93CF93DF93FC01808188233E
:1004500069F08F01EF012196065E1F4F0E9419027D
:100460008991882319F0C017D107C1F7DF91CF9187
:100470001F910F910895EF92FF920F931F93CF93C7
:10048000DF93EC017C018AE1E80EF11C8E010E94F1
:100490001D0289938D3019F0CE15DF05B9F7F801EB
:1004A0001082DF91CF911F910F91FF90EF900895EF
:0404B000F894FFCFEE
:1004B4005541525420746573743A004F6D61720053
:00000001FF
