:100000000C942A000C943F000C943F000C943F0089
:100010000C943F000C943F000C943F000C943F0064
:100020000C943F000C943F000C943F000C943F0054
:100030000C943F000C943F000C943F000C943F0044
:100040000C943F000C943F000C943F000C943F0034
:100050000C943F0011241FBECFE5D8E0DEBFCDBF1A
:1000600010E0A0E6B0E0E6EBF3E002C005900D92F0
:10007000A037B107D9F70E94C0010C94D9010C94A4
:10008000000081B3807F81BB81B3806F81BB8FEF24
:1000900082BB08950F931F93CF93DF93A0E6B0E048
:1000A00040E050E001E010E082B3806F82BB92B389
:1000B0008C911296980102C0220F331F8A95E2F7A5
:1000C000822F8095892382BBE8E6F0E0C1E0D0E092
:1000D00060E070E003C06F5F7F4F219680B32081A6
:1000E000329690E0022E02C0959587950A94E2F729
:1000F00080FD50C0C80102C0880F991F2A95E2F701
:100100009C0180B390E082239323892BD1F341306B
:100110005105C9F024F44115510541F03BC042306E
:100120005105F1F04330510541F134C061157105BD
:10013000E9F161307105E1F162307105D9F16330A7
:10014000710541F539C061157105C1F16130710565
:10015000B9F162307105B1F163307105D9F434C081
:100160006115710599F16130710591F16230710588
:1001700089F16330710571F42FC06115710571F15A
:100180006130710569F16230710561F163307105AB
:1001900069F52AC0C430D1050CF49DCF4F5F5F4F85
:1001A0004430510509F080CF8EE425C087E323C099
:1001B00084E321C081E31FC081E21DC088E31BC02E
:1001C00085E319C082E317C080E315C089E313C03B
:1001D00086E311C083E30FC08DE30DC08FE20BC037
:1001E0008AE209C08DE207C08BE205C0C430D105A8
:1001F0000CF471CF8EE4DF91CF911F910F91089590
:10020000C39A81EE94E00197F1F700C00000C39813
:100210000895CF93C82F8BB38F709C2F907F892B1D
:100220008BBB88B3897F88BB89EF90E00197F1F79A
:1002300000C000000E9400018BB3282F2F7030E116
:10024000C39FC0011124822B8BBB88B3897F88BBDD
:1002500089EF90E00197F1F700C000000E940001D3
:1002600081EE94E00197F1F700C00000CF9108956E
:10027000CF93C82F8BB38F709C2F907F892B8BBB14
:10028000C298C19A89EF90E00197F1F700C0000091
:100290000E9400018BB3282F2F7030E1C39FC00153
:1002A0001124822B8BBBC298C19A89EF90E00197F1
:1002B000F1F700C000000E94000181EE94E0019778
:1002C000F1F700C00000CF91089587B38E6087BB1F
:1002D0008AB38F708ABBC198C29A0E9400018AB308
:1002E000806F8ABBC298089581E00E940901089539
:1002F0000E94650187B38E6087BB8AB3806F8ABB1B
:100300000E94740187E893E10197F1F700C00000B3
:1003100082E00E94090188E20E9409018FE00E94A8
:10032000090186E00E94090180E80E940901089500
:1003300080E40E94090180E00E94380181E10E946E
:1003400038018BE10E94380180E00E94380180E092
:100350000E9438018EE00E94380181E10E9438013C
:1003600080E00E94380180E80E94090180E00E943C
:10037000380183EC99E00197F1F700C0000008957F
:100380000E9478010E94410083EC99E00197F1F707
:1003900000C000000E9498010E944A00813219F0BA
:1003A0008E34D1F303C00E947401F6CF0E9438014D
:0603B000F3CFF894FFCF2B
:1003B600040005000600070000000100020003001B
:00000001FF
