S00B00005744542E737265632A
S11300000C942A000C9434000C9434000C943400A6
S11300100C9434000C9434000C9434000C9434008C
S11300200C9434000C9434000C9434000C9434007C
S11300300C9434000C9434000C9434000C9434006C
S11300400C9434000C9434000C9434000C9434005C
S11300500C94340011241FBECFE5D8E0DEBFCDBF21
S11300600E9441000C945E000C94000088E181BD64
S113007011BC089581B58E6081BD81B58E7F81BD2F
S11300800895A09AA89A2FEF84E39CE02150804021
S11300909040E1F700C00000C1E00E943A0085B33F
S11300A08C2785BB2FEF83ED90E321508040904057
S11300B0E1F700C000000E943600EFCFF894FFCFB4
S9030000FC
