S0200000556E6974365F6C6573736F6E345F41737369676E6D656E742E737265638F
S11300000C942A000C9436000C945A000C947E0034
S11300100C9434000C9434000C9434000C9434008C
S11300200C9434000C9434000C9434000C9434007C
S11300300C9434000C9434000C9434000C9434006C
S11300400C9434000C9434000C9434000C9434005C
S11300500C94340011241FBECFE5D8E0DEBFCDBF21
S11300600E94A2000C94B5000C9400001F920F9201
S11300700FB60F9211242F938F939F93979A2FE388
S11300808DE093E0215080409040E1F700C00000F3
S113009097982FE38DE093E0215080409040E1F762
S11300A000C000009F918F912F910F900FBE0F9071
S11300B01F9018951F920F920FB60F9211242F9331
S11300C08F939F93969A2FE38DE093E02150804085
S11300D09040E1F700C0000096982FE38DE093E094
S11300E0215080409040E1F700C000009F918F9123
S11300F02F910F900FBE0F901F9018951F920F9283
S11301000FB60F9211242F938F939F93959A2FE3F9
S11301108DE093E0215080409040E1F700C0000062
S113012095982FE38DE093E0215080409040E1F7D3
S113013000C000009F918F912F910F900FBE0F90E0
S11301401F90189581B3806E81BB8A988B98BA985A
S11301508FB780688FBF8BB7806E8BBF85B7816088
S111016085BF85B78C6085BFFFCFF894FFCFB5
S9030000FC
