S01200005350495F6D61737465722E737265633B
S11300000C942A000C9434000C9434000C943400A6
S11300100C9434000C9434000C9434000C9434008C
S11300200C9434000C9434000C9434000C9434007C
S11300300C9434000C9434000C9434000C9434006C
S11300400C9434000C9434000C9434000C9434005C
S11300500C94340011241FBECFE5D8E0DEBFCDBF21
S11300600E9443000C9457000C94000087B3806BEB
S113007087BBBE988DB181658DB908958FB9779B83
S1130080FECF8FB108950E9436008FEF8ABBC0E087
S11300902FE38DE093E0215080409040E1F700C0D1
S11300A000008C2F0E943E008BBBCF5FF1CFF894F1
S10500B0FFCF7C
S9030000FC
