:020000040800F2
:1000000000280020E105000831060008310600083C
:100010003106000831060008310600080000000023
:100020000000000000000000000000003106000891
:100030003106000800000000310600083106000803
:1000400031060008310600083106000831060008B4
:10005000310600083106000881090008A5090008DA
:10006000C9090008ED090008110A00083106000856
:100070003106000831060008310600083106000884
:100080003106000831060008310600083106000874
:10009000310600083106000831060008350A00085C
:1000A0003106000831060008310600083106000854
:1000B0003106000831060008310600083106000844
:1000C0003106000831060008310600083106000834
:1000D0003106000831060008310600083106000824
:1000E000DD0A0008310600080000000031060008A3
:1000F0003106000831060008310600083106000804
:1001000031060008310600083106000831060008F3
:1001100031060008310600083106000831060008E3
:1001200031060008310600083106000831060008D3
:1001300010B5054C237833B9044B13B10448AFF321
:1001400000800123237010BD00000020000000008B
:10015000D80D000808B5034B1BB103490348AFF3A2
:10016000008008BD0000000004000020D80D000839
:1001700080B485B000AF78600023FB600BE0002303
:10018000BB6002E0BB680133BB60BB68FE2BF9DDDE
:10019000FB680133FB60FA687B689A42EFDB00BFC3
:1001A0001437BD4680BC704780B500AF00F086F8BC
:1001B00000F098F91420FFF7DBFF382000F00CF86E
:1001C0000F2000F009F8062000F006F8802000F06B
:1001D00003F800BF80BD000080B582B000AF0346C9
:1001E000FB71FB799BB219460B4800F0C2FD00225F
:1001F0004FF48071084800F0A5FD00224FF4007113
:10020000054800F09FFD0120FFF7B2FF00F054F910
:1002100000BF0837BD4680BD0008014080B582B0F0
:1002200000AF0346FB71FB799BB219460B4800F007
:10023000A0FD00224FF40071084800F083FD012268
:100240004FF48071054800F07DFD0120FFF790FF1D
:1002500000F032F900BF0837BD4680BD00080140FC
:1002600080B584B000AF78600023FB600023FB60A2
:1002700019E0FB68102B03D10021022000F039F9AE
:10028000FB68202B05D100F02DF90021012000F0A2
:1002900030F9FB687A6813441B781846FFF7BEFFF5
:1002A000FB680133FB60FB687A6813441B78002B02
:1002B000DFD100BF1037BD4680BD000080B500AF64
:1002C0007B4B4FF480721A80794B04229A70784BE2
:1002D0000222DA707649774800F0B5FC744B4FF48F
:1002E00000721A80724B04229A70714B0222DA70EB
:1002F0006F49704800F0A7FC6D4B4FF480621A8084
:100300006B4B04229A706A4B0222DA706849694882
:1003100000F099FC664B01221A80654B01229A700D
:100320006349644800F08FFC614B02221A80604BE5
:1003300001229A705E495F4800F085FC5C4B042204
:100340001A805B4B01229A7059495A4800F07BFC95
:10035000574B08221A80564B01229A70544955482F
:1003600000F071FC524B10221A80514B01229A70FE
:100370004F49504800F067FC4D4B20221A804C4BEF
:1003800001229A704A494B4800F05DFC484B4022DC
:100390001A80474B01229A704549464800F053FCA9
:1003A000434B80221A80424B01229A7040494148B7
:1003B00000F049FC00224FF480713E4800F0C2FC7E
:1003C00001224FF400713B4800F0BCFC00F074F8CF
:1003D000374B01221A80364B04229A70344B02228A
:1003E000DA703349334800F02EFC314B02221A8078
:1003F0002F4B04229A702E4B0222DA702C492D4882
:1004000000F021FC2A4B04221A80294B04229A7006
:10041000274B0222DA702649264800F014FC244BB0
:1004200008221A80224B04229A70214B0222DA7091
:100430001F49204800F007FC1D4B10221A801C4B5E
:1004400004229A701A4B0222DA701949194800F0F6
:10045000FAFB174B20221A80154B04229A70144B7A
:100460000222DA701249134800F0EDFB104B4022D3
:100470001A800F4B04229A700D4B0222DA700C493D
:100480000C4800F0E0FB0A4B80221A80084B042243
:100490009A70074B0222DA700549064800F0D3FB38
:1004A00001224FF40071034800F04CFC00BF80BDF6
:1004B000200000200008014080B500AF01224FF469
:1004C0008061074800F03EFC0520FFF751FE002246
:1004D0004FF48061024800F035FC00BF80BD00BFD2
:1004E0000008014080B500AF0120FFF775FE00BF96
:1004F00080BD80B582B000AF03460A46FB7113464B
:10050000BB71FB79012B02D0022B07D00DE0BB7928
:10051000803BDBB21846FFF75FFE06E0BB79403B4D
:10052000DBB21846FFF758FE00BF00BF0837BD46D4
:1005300080BD000080B400AF0A4B9B69094A43F0BC
:1005400004039361074B9B69064A43F008039361D8
:10055000044B9B69034A43F00103936100BFBD460E
:1005600080BC70470010024080B500AF054B0122EF
:100570001A700548FFF774FE4FF4C870FFF7F8FDD6
:1005800000BF80BD1C000020F00D000880B586B0C3
:1005900000AFFFF7CFFFFFF707FE0E4A3B1D07CA6C
:1005A00083E8070001233B740B4B7B6101237B74C1
:1005B0003B1D184600F0D8F9084B01221A70074B72
:1005C0001B78002BFBD0FFF78DFF044B00221A7025
:1005D000F5E700BFFC0D0008690500081C000020BD
:1005E0000D488546AFF300800C480D490D4A0023A5
:1005F00002E0D458C4500433C4188C42F9D30A4AD8
:100600000A4C002301E013600432A242FBD300F045
:10061000BFFBFFF7BBFFFEE7002800200000002023
:1006200000000020100E00080000002060000020E4
:10063000FEE7000080B483B000AF0346FB71FB7996
:100640000F2B44D801A252F823F000BF8D060008FA
:10065000950600089D060008A7060008B1060008D8
:10066000BB060008BB060008BB060008BB06000866
:10067000BB060008C5060008C5060008C506000838
:10068000C5060008C5060008C5060008124B402232
:100690001A601CE0104B80221A6018E00E4B4FF4D9
:1006A00080721A6013E00C4B4FF400721A600EE077
:1006B000094B4FF480621A6009E0074B4FF40002C7
:1006C0001A6004E0054B4FF480721A6000BF00BF4F
:1006D0000C37BD4680BC704700E100E010E100E04F
:1006E00080B483B000AF0346FB71FB790F2B44D875
:1006F00001A252F823F000BF3907000841070008A3
:1007000049070008530700085D070008670700084D
:100710006707000867070008670700086707000801
:1007200071070008710700087107000871070008C9
:100730007107000871070008124B40221A601CE084
:10074000104B80221A6018E00E4B4FF480721A6032
:1007500013E00C4B4FF400721A600EE0094B4FF49B
:1007600080621A6009E0074B4FF400021A6004E04F
:10077000054B4FF480721A6000BF00BF0C37BD46B6
:1007800080BC704700E300E010E300E080B584B077
:1007900000AF78607B681B893B810123BB727B685B
:1007A0005B6807F108021146184600F04CFA7B68B6
:1007B0001B889B089BB2FB737B681B88DBB203F032
:1007C0000303DBB29B00BB73604AFB7B023352F82E
:1007D0002320BB7B0F2101FA03F3DB4318465B495F
:1007E000FB7B0240023341F82320584AFB7B023353
:1007F00052F823207B685B6855498B4216D07B6892
:100800005B6854498B420FD07B685B6852498B42CE
:1008100008D07B685B6851498B4201D1032306E015
:10082000002304E0022302E0012300E00023B97B5F
:100830008B4018464549FB7B0243023341F8232095
:10084000474B9B687A681288114601228A40D2433E
:100850001146434A0B409360414BDB687A6812882B
:10086000114601228A40D24311463D4A0B40D360D3
:100870007B681B7B002B0BD1394B9B687A681288F5
:10088000114601228A401146354A0B43936029E004
:100890007B681B7B012B0BD1314BDB687A6812889C
:1008A000114601228A4011462D4A0B43D36019E0BC
:1008B0007B681B7B022B15D1294B9B687A681288B9
:1008C000114601228A401146254A0B439360244B6E
:1008D000DB687A681288114601228A401146204A54
:1008E0000B43D3607B681B8819467B681B691D4AD4
:1008F00042F821307B685B7B012B11D1184B1B68C0
:100900007A681288114601228A401146144A0B4324
:1009100013607B681B88DBB21846FFF78BFE11E083
:100920000F4B1B687A681288114601228A40D24315
:1009300011460B4A0B4013607B681B88DBB21846DC
:10094000FFF7CEFE00BF1037BD4680BD000001405E
:1009500000080140000C014000100140001401405B
:10096000000401402400002080B582B000AF786010
:100970007868FFF70BFF00BF0837BD4680BD000059
:1009800080B500AF054B5B69044A43F00103536136
:10099000034B1B68984700BF80BD00BF00040140A7
:1009A0002400002080B500AF054B5B69044A43F08A
:1009B00002035361034B5B68984700BF80BD00BFD3
:1009C000000401402400002080B500AF054B5B69A6
:1009D000044A43F004035361034B9B68984700BFEC
:1009E00080BD00BF000401402400002080B500AF9E
:1009F000054B5B69044A43F008035361034BDB6812
:100A0000984700BF80BD00BF0004014024000020C3
:100A100080B500AF054B5B69044A43F01003536196
:100A2000034B1B69984700BF80BD00BF0004014015
:100A30002400002080B500AF264B5B6903F0200343
:100A4000002B08D0234B5B69224A43F020035361FB
:100A5000214B5B6998471F4B5B6903F04003002BF8
:100A600008D01C4B5B691B4A43F0400353611A4B8F
:100A70009B699847174B5B6903F08003002B08D0F4
:100A8000144B5B69134A43F080035361124BDB69DB
:100A90009847104B5B6903F48073002B08D00D4B13
:100AA0005B690C4A43F4807353610B4B1B6A984794
:100AB000084B5B6903F40073002B08D0054B5B699E
:100AC000044A43F400735361034B5B6A984700BFC9
:100AD00080BD00BF000401402400002080B500AFAD
:100AE0002D4B5B6903F48063002B08D02A4B5B69B4
:100AF000294A43F480635361284B9B6A9847264BED
:100B00005B6903F40063002B08D0234B5B69224A26
:100B100043F400635361214BDB6A98471E4B5B69CA
:100B200003F48053002B08D01B4B5B691A4A43F433
:100B300080535361194B1B6B9847174B5B6903F448
:100B40000053002B08D0144B5B69134A43F4005345
:100B50005361124B5B6B98470F4B5B6903F4804307
:100B6000002B08D00C4B5B690B4A43F48043536164
:100B70000A4B9B6B9847084B5B6903F40043002BBF
:100B800008D0054B5B69044A43F400435361034BAF
:100B9000DB6B984700BF80BD0004014024000020AB
:100BA00080B483B000AF0346FB80FB88802B42D02B
:100BB000802B11DC082B36D0082B06DC022B2ED024
:100BC000042B2ED0012B28D037E0202B2FD0402B08
:100BD0002FD0102B29D030E0B3F5006F23D0B3F520
:100BE000006F09DCB3F5007F19D0B3F5806F18D022
:100BF000B3F5807F11D020E0B3F5005F17D0B3F5D7
:100C0000005F03DCB3F5805F0FD016E0B3F5804FD3
:100C10000FD0B3F5004F0ED00FE000230EE00423F9
:100C20000CE008230AE00C2308E0102306E014235C
:100C300004E0182302E01C2300E0FF2318460C37D1
:100C4000BD4680BC704790B585B000AF7860396014
:100C50000023BB600023FB733B681B88FF2B01D87C
:100C60007B6801E07B680433BB603B681B881846E7
:100C7000FFF796FF03461A460F239340DA43BB68FB
:100C80001B681A40BB681A603B689B78072B0BD027
:100C90003B689B78062B07D03B689B78052B03D0DD
:100CA0003B689B78042B0ED13B689B78043B9B00F0
:100CB0005AB23B68DB785BB213435BB2DBB203F042
:100CC0000F03FB732CE03B689B78002B03D03B6841
:100CD0009B78012B07D13B689B789B00DBB203F02C
:100CE0000F03FB731CE03B689B78082B02D10423A5
:100CF000FB7315E00823FB733B689B78022B07D13D
:100D00007B68DB683A6812881A437B68DA6007E020
:100D10007B68DB683A681288D2431A407B68DA60E5
:100D2000FC7B3B681B881846FFF73AFF034604FA32
:100D300003F2BB681B681A43BB681A6000BF143714
:100D4000BD4690BD80B483B000AF78600B467B8019
:100D500013467B707B78012B03D17A887B681A61FC
:100D600002E07A887B685A6100BF0C37BD4680BCC0
:100D7000704780B483B000AF78600B467B807A8880
:100D80007B68DA6000BF0C37BD4680BC704700004E
:100D900070B500250C4E0D4CA41BA410A54209D122
:100DA00000F01AF800250A4E0A4CA41BA410A54214
:100DB00005D170BD56F8253098470135EEE756F855
:100DC000253098470135F2E7080E0008080E0008A4
:100DD000080E00080C0E0008F8B500BFF8BC08BCEF
:100DE0009E467047F8B500BFF8BC08BC9E467047E9
:100DF000495251204558544939000000090000006B
:080E0000000C01400002170084
:040E08005501000888
:040E0C0031010008A8
:04000005080005E109
:00000001FF
