:020000040800F2
:100000000028002089030008D9030008D90300084C
:10001000D9030008D9030008D90300080000000034
:10002000000000000000000000000000D9030008EC
:10003000D903000800000000D9030008D903000814
:10004000D9030008D9030008D9030008D903000820
:10005000D9030008D9030008DD03000801040008E3
:1000600025040008490400086D040008D9030008AD
:10007000D9030008D9030008D9030008D9030008F0
:10008000D9030008D9030008D9030008D9030008E0
:10009000D9030008D9030008D90300089104000817
:1000A000D9030008D9030008D9030008D9030008C0
:1000B000D9030008D9030008D9030008A50D0008DA
:1000C000E10D0008ED0D0008F90D0008B90E00085B
:1000D000150F0008A90F0008BD0F0008D10F000878
:1000E00039050008D903000800000000D903000802
:1000F000D9030008D9030008D9030008D903000870
:10010000D9030008D9030008D9030008D90300085F
:10011000D9030008D9030008D9030008D90300084F
:10012000D9030008D9030008D9030008D90300083F
:1001300010B5054C237833B9044B13B10448AFF321
:1001400000800123237010BD00000020000000008B
:100150002C10000808B5034B1BB103490348AFF34B
:10016000008008BD00000000040000202C100008E2
:1001700080B58AB000AF40233B624FF48063FB61DF
:10018000094B7B600023FB6000237B620023BB6084
:10019000064800F00DFC3B1D1946044800F000FB2A
:1001A00000BF2837BD4680BDA08601000054004036
:1001B00080B5C6B002AF3B4619601146BB1D024672
:1001C0001A807B1D0A461A70002387F80F31BB1D69
:1001D0001B881B0A9BB2DAB207F10C031A70BB1D15
:1001E0001B88DAB207F10C035A70022387F80F312B
:1001F00010E097F80F31023B3A4612681A4497F81C
:100200000F31117807F10C02D15497F80F310133F7
:1002100087F80F3197F80F217B1D1B7802339A4224
:10022000E7DB7B1D1B780233194607F10C02002324
:100230000193002300930B462A21044800F0FCFBA5
:1002400000BF07F58877BD4680BD00BF0054004061
:1002500080B586B002AF03463960FB8013467B71E0
:100260000023FB73FB881B0A9BB2DBB23B73FB884A
:10027000DBB27B7307F10C02002301930023009390
:1002800002232A21084800F0D7FB7A790123019341
:100290000023009313463A682A21034800F01EFC0D
:1002A00000BF1037BD4680BD0054004080B400AF91
:1002B0000A4B9B69094A43F004039361074B9B690E
:1002C000064A43F008039361044B9B69034A43F0D9
:1002D0000103936100BFBD4680BC7047001002401F
:1002E00080B584B000AFFFF7E1FF234A07F10803B0
:1002F00092E8030018600433198002330A0C1A7064
:100300003B4600221A60C3F80320FFF731FF07F1D4
:10031000080307221946AF20FFF74AFF3B46072292
:100320001946AF20FFF794FF0A233B720B237B7221
:100330000C23BB720D23FB7207F10803042219463C
:1003400040F6FF70FFF734FF3B460422194640F6A3
:10035000FF70FFF77DFF094B9B6803F00103012B42
:10036000F9D101220649054800F07AFD012204492D
:10037000044800F0FDFDEEE74410000800300140A5
:1003800070000020003801400D488546AFF3008022
:100390000C480D490D4A002302E0D458C4500433E0
:1003A000C4188C42F9D30A4A0A4C002301E01360B6
:1003B0000432A242FBD300F015FEFFF791FFFEE7E7
:1003C0000028002000000020000000206810000825
:1003D00000000020B0000020FEE7000080B500AF64
:1003E000054B5B69044A43F001035361034B1B68EF
:1003F000984700BF80BD00BF00040140740000208A
:1004000080B500AF054B5B69044A43F002035361BA
:10041000034B5B68984700BF80BD00BF00040140EC
:100420007400002080B500AF054B5B69044A43F0BF
:1004300004035361034B9B68984700BF80BD00BF16
:10044000000401407400002080B500AF054B5B69DB
:10045000044A43F008035361034BDB68984700BF2D
:1004600080BD00BF000401407400002080B500AFD3
:10047000054B5B69044A43F010035361034B1B694E
:10048000984700BF80BD00BF0004014074000020F9
:1004900080B500AF264B5B6903F02003002B08D02A
:1004A000234B5B69224A43F020035361214B5B6974
:1004B00098471F4B5B6903F04003002B08D01C4B8F
:1004C0005B691B4A43F0400353611A4B9B69984791
:1004D000174B5B6903F08003002B08D0144B5B695A
:1004E000134A43F080035361124BDB699847104B6A
:1004F0005B6903F48073002B08D00D4B5B690C4AD9
:1005000043F4807353610B4B1B6A9847084B5B693C
:1005100003F40073002B08D0054B5B69044A43F4D5
:1005200000735361034B5B6A984700BF80BD00BFF7
:10053000000401407400002080B500AF2D4B5B69C2
:1005400003F48063002B08D02A4B5B69294A43F4EB
:1005500080635361284B9B6A9847264B5B6903F481
:100560000063002B08D0234B5B69224A43F40063ED
:100570005361214BDB6A98471E4B5B6903F4805340
:10058000002B08D01B4B5B691A4A43F4805353611C
:10059000194B1B6B9847174B5B6903F40053002BF7
:1005A00008D0144B5B69134A43F400535361124B58
:1005B0005B6B98470F4B5B6903F48043002B08D0BB
:1005C0000C4B5B690B4A43F4804353610A4B9B6BB2
:1005D0009847084B5B6903F40043002B08D0054B98
:1005E0005B69044A43F400435361034BDB6B984758
:1005F00000BF80BD000401407400002080B483B0BF
:1006000000AF0346FB80FB88802B42D0802B11DC9F
:10061000082B36D0082B06DC022B2ED0042B2ED034
:10062000012B28D037E0202B2FD0402B2FD0102BA0
:1006300029D030E0B3F5006F23D0B3F5006F09DCAB
:10064000B3F5007F19D0B3F5806F18D0B3F5807F74
:1006500011D020E0B3F5005F17D0B3F5005F03DCE5
:10066000B3F5805F0FD016E0B3F5804F0FD0B3F530
:10067000004F0ED00FE000230EE004230CE008230F
:100680000AE00C2308E0102306E0142304E01823FA
:1006900002E01C2300E0FF2318460C37BD4680BC57
:1006A000704790B585B000AF786039600023BB60BB
:1006B0000023FB733B681B88FF2B01D87B6801E09C
:1006C0007B680433BB603B681B881846FFF796FFC6
:1006D00003461A460F239340DA43BB681B681A404F
:1006E000BB681A603B689B78072B0BD03B689B78F4
:1006F000062B07D03B689B78052B03D03B689B7883
:10070000042B0ED13B689B78043B9B005AB23B689C
:10071000DB785BB213435BB2DBB203F00F03FB7316
:100720002CE03B689B78002B03D03B689B78012B27
:1007300007D13B689B789B00DBB203F00F03FB7390
:100740001CE03B689B78082B02D10423FB7315E067
:100750000823FB733B689B78022B07D17B68DB681F
:100760003A6812881A437B68DA6007E07B68DB68C6
:100770003A681288D2431A407B68DA60FC7B3B6897
:100780001B881846FFF73AFF034604FA03F2BB68DA
:100790001B681A43BB681A6000BF1437BD4690BD82
:1007A000B0B586B000AF786039600023FB820023CB
:1007B000BB82774B3B610023FB817B68754A934288
:1007C00010D1754A3B6814461D460FCD0FC40FCD9E
:1007D0000FC42B682360714BDB69704A43F400132C
:1007E000D36110E06C4B3A6803F1240415460FCD39
:1007F0000FC40FCD0FC42B682360684BDB69674AB9
:1008000043F48003D3613B689B68002B7CD17B68F9
:100810005B68FB82FB8A23F03F03FB8200F00CFB4A
:1008200038613B695E4AA2FB03239B0CBB82FA8AB8
:10083000BB8A1343FB82FA8A7B685A607B681B6819
:1008400023F001027B681A600023FB823B681B686F
:100850004CF25032934204D03B681B68514A934299
:1008600010D13B681B685B003A69B2FBF3F3FB8174
:10087000FB89FB82FA8A7B68DA61BB8A01331A46FC
:100880007B681A627B681B68FB823B689B699AB233
:100890003B68DB699BB213439AB23B689B689BB28F
:1008A00013439AB23B685B689BB21343FB82FA8A9C
:1008B0007B681A600023FB823B689B89012B0FD168
:1008C000FB8A43F00103FB823B681B8A5B001AB280
:1008D000B7F9163013431BB2FB82FA8A7B68DA60E1
:1008E0000023FB823B68DB895B001AB2B7F9163044
:1008F00013431BB2FB823B685B699AB2FB8A1343CA
:10090000FB82FA8A7B689A603B681B6A002B2ED0B8
:100910007B681B6843F480627B681A607B681B6895
:1009200043F400727B681A607B681B6843F4807232
:100930007B681A607B68174A93420CD11A4B1B687C
:10094000194A43F000431360184B1B68174A43F0E1
:10095000010313600BE0154B1B68144A43F00203BC
:100960001360124B1B68114A43F0040313607B6849
:1009700000225A617B6800229A617B681B6843F001
:1009800001027B681A6000BF1837BD46B0BD00BFCA
:1009900000127A00005400401C00002000100240A9
:1009A00083DE1B43A086010000E100E010E100E0CF
:1009B00080B584B000AF78607B681D4A934218D13F
:1009C0004023BB810723BB730223FB7307F10C0396
:1009D00019461848FFF765FE8023BB810723BB73C8
:1009E0000223FB7307F10C0319461248FFF759FE67
:1009F00019E04FF48063BB810723BB730223FB73B1
:100A000007F10C0319460B48FFF74BFE4FF4006348
:100A1000BB810723BB730223FB7307F10C03194649
:100A20000448FFF73EFE00BF1037BD4680BD00BF43
:100A300000540040000C014080B586B000AFF86063
:100A40007A603B600B467B8100220121F86800F050
:100A5000B3F800BF0121F86800F0F0F80346002B5E
:100A6000F8D07B8900221946F86800F061F900BFD0
:100A70000221F86800F0E2F80346002BF8D000BF2E
:100A80001549F86800F0DAF80346002BF8D0002387
:100A90007B6111E07B697A6813441B781A46FB6816
:100AA0001A6100BF0421F86800F0C8F80346002B63
:100AB000F8D07B6901337B617B693A689A42E9D857
:100AC00097F82030002B03D10121F86800F09BF843
:100AD00000BF1837BD4680BD8000070080B586B0D6
:100AE00000AFF8607A603B600B467B81FB68304A60
:100AF000934214BF01230023DBB2FB7400220121C7
:100B0000F86800F059F800BF0121F86800F096F885
:100B10000346002BF8D07B8901221946F86800F0C3
:100B200007F900BF0221F86800F088F80346002B9F
:100B3000F8D00121F86800F01AF93B68002B18D0B2
:100B40003B687B6112E000BF0321F86800F076F893
:100B50000346002BF8D0FB681B69DAB27B681A7079
:100B60007B6801337B607B69013B7B617B69012B87
:100B7000E9DC0021F86800F0FAF897F82030002B43
:100B800003D10121F86800F03EF8FA7C09491346C8
:100B9000DB0013449B000B4418334FF480621A604F
:100BA0000121F86800F0E3F800BF1837BD4680BDAA
:100BB000005400401C00002080B582B000AF786077
:100BC0000B46FB701346BB70BB78012B07D000BFF0
:100BD0000021786800F032F80346002BF8D1FB784A
:100BE000002B06D07B681B6843F480727B681A6018
:100BF00005E07B681B6823F480727B681A6000BF85
:100C00000837BD4680BD80B483B000AF78600B4626
:100C1000FB70FB78002B06D07B681B6843F40072E6
:100C20007B681A6005E07B681B6823F400727B68B0
:100C30001A6000BF0C37BD4680BC704780B489B0D5
:100C400000AF786039600023FB773B68032B5AD0F4
:100C5000032B04D8012B14D0012B1ED805E0052B43
:100C600045D9324A934227D059E07B689B6903F00B
:100C70000203002B02D00123FB7750E00023FB7717
:100C80004DE07B685B6903F00103002B02D0012378
:100C9000FB7744E00023FB7741E07B685B6903F06E
:100CA0000203002B02D00123FB7701E00023FB7736
:100CB0007B689B69FB6032E07B685B69BB617B683A
:100CC0009B697B617B691B047B61BA697B69134308
:100CD00023F07F433B613A69144B1340134A93421C
:100CE00002D10123FB771AE00023FB7717E07B6832
:100CF0005B6903F08003002B02D00123FB770EE039
:100D00000023FB770BE07B685B6903F04003002B5B
:100D100002D00123FB7701E00023FB7700BFFB7FBC
:100D200018462437BD4680BC704700BF80000700CE
:100D300080B483B000AF78600B467B8013467B7035
:100D40007B885B007B807B78002B04D17B8823F041
:100D500001037B8003E07B8843F001037B807A887A
:100D60007B681A6100BF0C37BD4680BC704780B4F9
:100D700083B000AF78600B46FB70FB78012B06D187
:100D80007B681B6843F480627B681A6005E07B68BF
:100D90001B6823F480627B681A6000BF0C37BD4675
:100DA00080BC704780B485B000AF00233B600B4B24
:100DB000FB60FB685B6803F40073BB60FB685B6807
:100DC00003F480637B60FB685B6903F010037B6066
:100DD00000BF1437BD4680BC704700BF00540040C0
:100DE00080B400AF00BFBD4680BC704780B400AF88
:100DF00000BFBD4680BC704780B400AF00BFBD4699
:100E000080BC704780B400AF084B5B689B0803F060
:100E10000303002B02D0012B02D003E0044B01E0BE
:100E2000044BFFE71846BD4680BC704700100240E7
:100E300000127A000024F40080B500AFFFF7E2FF53
:100E40000146054B5B681B0903F00F03034AD35CA3
:100E500021FA03F3184680BD001002404C10000830
:100E600080B485B000AFF860B9601346FB71FB79C0
:100E7000012B07D100BFFB689B685B0803F00103EF
:100E8000002BF8D0BB681B881A46FB68DA60FB7938
:100E9000012B06D100BFFB689B6803F00103002B08
:100EA000F9D0FB68DB689AB2BB681A8000BF1437C0
:100EB000BD4680BC7047000080B582B000AF134BC8
:100EC0009B685B0803F00103DAB23B7962F300032D
:100ED0003B710E4B9B6803F00103DAB23B7962F37E
:100EE00041033B71094B9B681B0903F00103DAB214
:100EF0003B7962F382033B71054B1B685B69387970
:100F0000984700BF0837BD4680BD00BF0030014094
:100F10006400002080B582B000AF134B9B685B0873
:100F200003F00103DAB23B7962F300033B710E4B2D
:100F30009B6803F00103DAB23B7962F341033B7132
:100F4000094B9B681B0903F00103DAB23B7962F39A
:100F500082033B71054B5B685B693879984700BF3A
:100F60000837BD4680BD00BF003800406400002047
:100F700080B485B000AFF860B9601346FB71FB79AF
:100F8000012B07D100BFFB681B68DB0903F00103DD
:100F9000002BF8D0BB681B88DAB2FB685A6000BF30
:100FA0001437BD4680BC704780B500AF024B1B684C
:100FB0001B69984700BF80BD6C00002080B500AF62
:100FC000024B1B681B69984700BF80BD6C00002066
:100FD00080B500AF024B1B681B69984700BF80BDFE
:100FE0006C00002070B500250C4E0D4CA41BA41005
:100FF000A54209D100F01AF800250A4E0A4CA41B9C
:10100000A410A54205D170BD56F82530984701358A
:10101000EEE756F8253098470135F2E760100008F2
:10102000601000086010000864100008F8B500BFE8
:10103000F8BC08BC9E467047F8B500BFF8BC08BCB9
:041040009E46704711
:101044000102030405060700000000000000000080
:0C10540001020304060708090000000068
:04106000550100082E
:04106400310100084E
:040000050800038963
:00000001FF
