S01D0000556E6974375F6C6573736F6E315F73656374696F6E2E73726563B8
S11300000C942A000C9434000C9434000C943400A6
S11300100C9434000C9434000C9434000C9434008C
S11300200C9434000C9434000C9434000C9434007C
S11300300C9434000C9434000C9434000C9434006C
S11300400C9434000C9434000C9434000C9434005C
S11300500C94340011241FBECFE5D8E0DEBFCDBF21
S11300600E9436000C949B000C940000CF93DF9305
S11300701F92CDB7DEB78FEF84BB87BB81B3887F78
S113008081BB1982E1E0F0E0809927C035C025BB2F
S1130090A3ECB9E01197F1F700C0000095BBA3EC05
S11300A0B9E01197F1F700C00000815081F74F5F6C
S11300B05F4F4A30510559F0CA0182959295907F5D
S11300C09827807F9827982F97608AE0E0CF6F5F0A
S11300D07F4F6A30710519F40EC060E070E0CB0107
S11300E082959295907F9827807F9827282F2B6060
S11300F040E050E0E1CFAA9883EC99E00197F1F752
S113010000C00000819BC0CF8981883019F418BADF
S113011019820EC0898128B3DF0102C0AA0FBB1F58
S11301208A95E2F7CD01822B88BB89818F5F898311
S10D01308199FECFA9CFF894FFCF08
S9030000FC
